{
  "_format": "hh-sol-artifact-1",
  "contractName": "PriceConsumerV3",
  "sourceName": "contracts/PriceConsumerV3.sol",
  "abi": [
    {
      "inputs": [],
      "stateMutability": "nonpayable",
      "type": "constructor"
    },
    {
      "inputs": [
        {
          "internalType": "string",
          "name": "pair",
          "type": "string"
        }
      ],
      "name": "getChainlinkDataFeedLatestAnswer",
      "outputs": [
        {
          "internalType": "uint256",
          "name": "",
          "type": "uint256"
        }
      ],
      "stateMutability": "view",
      "type": "function"
    }
  ],
  "bytecode": "0x608060405234801561001057600080fd5b50731b44f3514812d835eb1bdb0acb33d3fa3351ee43600060405161003490610229565b908152602001604051809103902060006101000a81548173ffffffffffffffffffffffffffffffffffffffff021916908373ffffffffffffffffffffffffffffffffffffffff16021790555073694aa1769357215de4fac081bf1f309adc32530660006040516100a39061028a565b908152602001604051809103902060006101000a81548173ffffffffffffffffffffffffffffffffffffffff021916908373ffffffffffffffffffffffffffffffffffffffff16021790555073c59e3633baac79493d908e63626716e204a45edf6000604051610112906102eb565b908152602001604051809103902060006101000a81548173ffffffffffffffffffffffffffffffffffffffff021916908373ffffffffffffffffffffffffffffffffffffffff160217905550735fb1616f78da7afc9ff79e0371741a747d2a7f2260006040516101819061034c565b908152602001604051809103902060006101000a81548173ffffffffffffffffffffffffffffffffffffffff021916908373ffffffffffffffffffffffffffffffffffffffff160217905550610361565b600081905092915050565b7f4254432f55534400000000000000000000000000000000000000000000000000600082015250565b60006102136007836101d2565b915061021e826101dd565b600782019050919050565b600061023482610206565b9150819050919050565b7f4554482f55534400000000000000000000000000000000000000000000000000600082015250565b60006102746007836101d2565b915061027f8261023e565b600782019050919050565b600061029582610267565b9150819050919050565b7f4c494e4b2f555344000000000000000000000000000000000000000000000000600082015250565b60006102d56008836101d2565b91506102e08261029f565b600882019050919050565b60006102f6826102c8565b9150819050919050565b7f4254432f45544800000000000000000000000000000000000000000000000000600082015250565b60006103366007836101d2565b915061034182610300565b600782019050919050565b600061035782610329565b9150819050919050565b6104bf806103706000396000f3fe608060405234801561001057600080fd5b506004361061002b5760003560e01c80636b33e35414610030575b600080fd5b61004a60048036038101906100459190610214565b610060565b604051610057919061027a565b60405180910390f35b600080600084846040516100759291906102d4565b908152602001604051809103902060009054906101000a900473ffffffffffffffffffffffffffffffffffffffff169050600073ffffffffffffffffffffffffffffffffffffffff168173ffffffffffffffffffffffffffffffffffffffff1603610115576040517f08c379a000000000000000000000000000000000000000000000000000000000815260040161010c9061034a565b60405180910390fd5b60008060008060008573ffffffffffffffffffffffffffffffffffffffff1663feaf968c6040518163ffffffff1660e01b815260040160a060405180830381865afa158015610168573d6000803e3d6000fd5b505050506040513d601f19601f8201168201806040525081019061018c919061040e565b9450945094509450945083965050505050505092915050565b600080fd5b600080fd5b600080fd5b600080fd5b600080fd5b60008083601f8401126101d4576101d36101af565b5b8235905067ffffffffffffffff8111156101f1576101f06101b4565b5b60208301915083600182028301111561020d5761020c6101b9565b5b9250929050565b6000806020838503121561022b5761022a6101a5565b5b600083013567ffffffffffffffff811115610249576102486101aa565b5b610255858286016101be565b92509250509250929050565b6000819050919050565b61027481610261565b82525050565b600060208201905061028f600083018461026b565b92915050565b600081905092915050565b82818337600083830152505050565b60006102bb8385610295565b93506102c88385846102a0565b82840190509392505050565b60006102e18284866102af565b91508190509392505050565b600082825260208201905092915050565b7f496e76616c696420636f6e76657273696f6e2070616972000000000000000000600082015250565b60006103346017836102ed565b915061033f826102fe565b602082019050919050565b6000602082019050818103600083015261036381610327565b9050919050565b600069ffffffffffffffffffff82169050919050565b6103898161036a565b811461039457600080fd5b50565b6000815190506103a681610380565b92915050565b6000819050919050565b6103bf816103ac565b81146103ca57600080fd5b50565b6000815190506103dc816103b6565b92915050565b6103eb81610261565b81146103f657600080fd5b50565b600081519050610408816103e2565b92915050565b600080600080600060a0868803121561042a576104296101a5565b5b600061043888828901610397565b9550506020610449888289016103cd565b945050604061045a888289016103f9565b935050606061046b888289016103f9565b925050608061047c88828901610397565b915050929550929590935056fea2646970667358221220c6cc66d1482e4ed5f3f9ffc31e71f295ed75805e3ca8908a85acce26b93b462f64736f6c63430008130033",
  "linkReferences": {},
  "deployedLinkReferences": {}
}